:100AFF00202020204C594D424544474520200020BE
:100B0F00202020524F424F54494353202020202071
:100B1F00002020204652455155454E435920202054
:100B2F000020202020434F554E5445522020202096
:100B3F00004652455155454E435920496E20487A3B
:100B4F000020202020002020200020200020002036
:050B5F00202020300001
:090C6C0004120000000001110057
:060BF000D2B17F0A7E0075
:100BF600E4FDFCC3ED9FEE6480F8EC648098501928
:100C0600758951758CFC758A66D28C308DFDC28CC7
:090C1600C28D0DBD00010C80DA55
:010C1F0022B2
:090C59007FD07E07120BF67F012B
:0A0C62008F90C2B0120BF0C2B12255
:100B6400AE0CAF0D7C001209F68E088F097C277D30
:100B740010120A08EF2430F50BE43EF50AAF0B120D
:100B84000BA37C037DE8AE08AF09120A087C007D44
:0F0B94000A120A08ED2430F50BE43CF50AAF0B0A
:0A0BA3008F90D2B0120BF0C2B12205
:100C20008B0E8A0F8910AB0EAA0FA9101209DD6076
:100C3000130510E5107002050F14F91209DDFF12FB
:050C40000BA380E2227D
:100C45007F38120C627F01120C627F0C120C627FDE
:040C550080020C62AB
:100BAD007F80120C627BFF7A0A79FF120C207FC0C6
:100BBD00120C627BFF7A0B790E120C20120C597FEE
:100BCD0080120C627BFF7A0B7920120C207FC012F1
:100BDD000C627BFF7A0B7930120C20120C597F803E
:030BED00020C6295
:10080000E4F508F509F50AF50B120C45120BAD7F5E
:10081000647E000209D7758951E4F58DF58BD28E7F
:100820007F64FE120BF6C28EAF8DEFFEAD8B7C00A7
:10083000E42DF50DEC3EF50CFEAF0D7D0A1209F628
:100840008E0C8F0DE511700B7BFF7A0B7940120C2B
:100850002005117FC5120C62C3E50D9401E50C94CF
:1008600000402FE50D940AE50C940050257BFF7A9B
:100870000B7950120C20AE0CAF0D7C277D101209A5
:10088000F68E088F09120A08EF2430F50BE43E02B9
:1008900009C5C3E50D940AE50C9400404FE50D949D
:1008A00064E50C940050457BFF7A0B7955120C20BF
:1008B000AE0CAF0D7C037DE81209F68E088F097C23
:1008C000277D10120A08EF2430F50BE43E120B9F2F
:1008D000AE08AF097C037DE8120A087C007D0A128D
:1008E0000A08ED2430F50BE43C0209C5C3E50D947C
:1008F00064E50C94004034E50D94E8E50C94035055
:100900002A7BFF7A0B7959120C207D64120B64AE9E
:1009100008AF097C007D64120A087C007D0A120A77
:1009200008ED2430F50BE43C0209C5C3E50D94E85D
:10093000E50C9403403BE50D9410E50C94275031F1
:100940007BFF7A0B795C120C207D0A120B647C0011
:100950007D64120B8AAE08AF097C007D0A120A087A
:100960007C007D0A120A08ED2430F50BE43C0209F4
:10097000C5C3E50D9410E50C9427404EAE0CAF0DA9
:10098000E4FCFD7BA07A867901F8D3120A5D403A37
:10099000850C08850D09AE08AF09120B71AE08AFC2
:1009A000097C007D64120B8EAE08AF097C007D0AC5
:1009B000120B8EAE08AF097C007D0A120A08ED24E6
:1009C00030F50BE43C120B9F80097BFF7A0B795EBC
:0D09D000120C207FF47E01120BF6020816B7
:03000000020A737E
:0C0A7300787FE4F6D8FD758115020ABA00
:1009DD00BB010689828A83E0225002E722BBFE0218
:0909ED00E32289828A83E493224B
:1009F600EF8DF0A4A8F0CF8CF0A428CE8DF0A42E15
:020A0600FE22CE
:100A0800BC000BBE0029EF8DF084FFADF022E4CCD2
:100A1800F875F008EF2FFFEE33FEEC33FCEE9DEC9B
:100A2800984005FCEE9DFE0FD5F0E9E4CEFD22EDE1
:100A3800F8F5F0EE8420D21CFEADF075F008EF2F2B
:100A4800FFED33FD4007985006D5F0F222C398FD1C
:050A58000FD5F0EA22B9
:100A5D00EB9FF5F0EA9E42F0E99D42F0EC6480C810
:060A6D0064809845F022B0
:100A7F00020800E493A3F8E493A34003F68001F285
:100A8F0008DFF48029E493A3F85407240CC8C33378
:100A9F00C4540F4420C8834004F456800146F6DF47
:100AAF00E4800B0102040810204080900C6CE47E5F
:100ABF00019360BCA3FF543F30E509541FFEE4933C
:100ACF00A360010ECF54C025E060A840B8E493A303
:100ADF00FAE493A3F8E493A3C8C582C8CAC583CA2E
:100AEF00F0A3C8C582C8CAC583CADFE9DEE780BEE6
:010C7500007E
:00000001FF
